:020000040040BA
:10000000F0904020110740000D0740000D07400010
:100010000D0740000D0740000D07400000000000E4
:100020000000000000000000000000000D0740007C
:100030000D074000000000000D0740000D074000C4
:100040000D0740000D07400079C040000D0740003B
:10005000997C41000D0740000D0740000D0740004E
:100060000D07400000000000411E4100511E4100EC
:10007000611E41000D0740000D074000F5344100AE
:10008000711E4100811E41000D0740000D07400018
:100090000D0740000D0740000D0740000D07400010
:1000A0000D0740000D0740000D0740000D07400000
:1000B0000D074000317841000D074000394B4100E9
:1000C0000D0740000D0740000D0740000D074000E0
:1000D000000000000D074000000000000D07400078
:1000E000417841000D0740000D0740000D0740001A
:1000F0000D0740000D0740000D0740000D074000B0
:10010000757C4100397C41000D0740000D0740001F
:100110000D0740000000000000000000000000008B
:100120000D0740000D0740000D0740000D0740007F
:100130000D074000000000000D074000A97C4100B1
:1001400010B5054C237833B9044B13B10448AFF311
:1001500000800123237010BD08084020000000002B
:1001600080D941000C4B43B10C480D4910B5AFF399
:1001700000800C48036823B910BD0A48036833B9EE
:100180007047094B002BF7D0BDE810401847064BCD
:10019000002BF5D0184700BF0000000080D94100B7
:1001A0000C08402080D94100000000002DE9F043F8
:1001B000994883B0DFF8C4820124C047974E0A20D3
:1001C000974FB0470B20B0470C20B0471020B047E6
:1001D0001120B047DFF8A892384600222021914D27
:1001E000C84700224FF080518F48C8474FF4801213
:1001F00010218E488E4B98474FF4A0418B488D4B71
:100200009847002338466FF020011A460094A8470B
:1002100000234FF0FF3188481A460094A847002376
:100220006FF0805180481A460094A84700234FF091
:10023000FF3182481A460094A84700234FF0FF314F
:100240007F481A460094A847384600222021C84714
:1002500000224FF080517448C847FB6B9B0640F169
:10026000D2807848C047784B98470A20B0470B2087
:10027000B0470C20B0471020B0471120B0470B20EA
:10028000B0470C20B0471020B0470A20B0471120DB
:10029000B047002300944FF000711A466248A84707
:1002A000002300944FF000411A466448A8472246B4
:1002B000009400234FF080415B48A847002322466A
:1002C00000944FF000415848A847DFF8B881002259
:1002D0004FF080415948C047002220215848C0476C
:1002E00000224FF480515048C047384600224FF456
:1002F0008011C047214600224B48C04700224FF4DE
:1003000000414948C04700224FF000614648C047BD
:1003100000224FF400514448C04700224FF0806152
:100320004148C04700224FF000513F48C0470022DB
:1003300008214348C047002300944FF460011A4647
:100340003E48A8470023384600941A463F49A8472C
:10035000002300944FF4FF711A463348A847DFF892
:100360002881384608224FF00061C04738461022E5
:100370004FF00061C04700234FF4001100941A466B
:100380002948A8471320B0473149324B3248984793
:100390003A20B047314B9847314B984700224FF0F5
:1003A00080512148C847002220213846C84741F2E1
:1003B00010002C4B9847224600940023102120481F
:1003C000A8470023384600941A462749A847002327
:1003D00000944FF441711A461748A847002300942F
:1003E0001A4622491048A847002300941A4620497B
:1003F0001248A84700230F2111481A460094A84725
:1004000003B0BDE8F08309481A4B984707481A4BD8
:1004100003B0BDE8F0431847086F0F00257A41008C
:10042000000E0E401575410000120E4010180E40CF
:10043000B9064000B506400000100E4000140E4002
:1004400000160E4084B707008975410000080006B9
:100450005C9841004123410000800140D1D0400020
:10046000CDC0400059054000C00700B001489721A9
:10047000FE500030C1064000A106400001004020AF
:10048000DD7441003174410045744100F0B589B01C
:10049000050A0346502702260DF1070201248DF8B4
:1004A00007108DF80C5003A90F48104D8DF80D3032
:1004B0008DF81C70049605920694A84710B120464A
:1004C00009B0F0BD0DF10B03074E8DF80B008DF850
:1004D0000C0004900694059303A93046A847002811
:1004E000FAD109B0F0BD00BF0080014015244100E1
:1004F00089B1F8B514465518084F861A01E0AC4288
:1005000007D0301914F8011BB8470028F7D0012094
:10051000F8BD0020F8BD0020704700BF8D044000EA
:10052000F0B587B00346070A502602250491084C0F
:1005300001A908488DF805308DF8047003928DF8F4
:1005400014600295A047003018BF012007B0F0BD2D
:100550007523410000800140064B80B2064AD3F863
:1005600014110A40C3F81421D3F814211043C3F81E
:1005700014017047008008400000FFFF014B03603A
:10058000704700BF010000A5C2F30B020A4342609E
:10059000704700BF034B984200D07047024B036086
:1005A000704700BF00190E40010000C4806870470A
:1005B000016270474162704730B485688468A54223
:1005C00003D085688468AC42FBD159B1C4F30155AE
:1005D000C4F3034005EB850500EB4500650248BF09
:1005E0000C30086042B1C4F30231C4F3032001EBC4
:1005F000810100EB4101116043B1C4F3021204F028
:100600000F0402EB820204EB42041C6030BC704712
:10061000F0B5C568C468059EA54203D0C568C46826
:10062000AC42FBD1A1B1C4F30337C4F30215C4F348
:10063000032E04F00F0007EB870705EB85050EEB93
:1006400047074FF0640E00EB45000EFB007008609A
:1006500042B1C4F30055C4F30341A800284401EBA0
:100660004001116043B1C4F30172C4F3036102EBB2
:10067000820201EB42021A6016B1C4F342543460A4
:10068000F0BD00BF00230361704700BF014B436111
:10069000704700BF0000010180697047C161704769
:1006A000034B03608368BFF34F8F20BF30BF704799
:1006B000040000A5C16070470A430261704700BF93
:1006C0008268024B13408360704700BFFFFFFD5AF2
:1006D00000EB81115368C86D0B6693684B66136815
:1006E00023F07F430B671369C3F30B034B67536915
:1006F000CB67936923F07F43C1F88030D36923F03F
:100700007F43C1F88430D3688B677047FEE700BF32
:100710002449254A914200B583B00ED02348824235
:100720000BD2D343034423F003030433134451F89F
:10073000040B42F8040B9A42F9D11D4A1D498A4222
:100740000AD2D34300200B4423F0030304331344A1
:1007500042F8040B9A42FBD1174B184A23F07F034F
:100760009360EFF31083B3FA83F35B09019372B6DE
:10077000BFF35F8F124A00231249137001980B6870
:1007800043F470030B60BFF34F8FBFF36F8F20B143
:1007900001231370BFF35F8F62B60B4B98470B4B6F
:1007A0009847FEE780D9410000004020040840201F
:1007B00008084020F07040200000400000ED00E0FC
:1007C0000A00402088ED00E0B9954100297E4100F3
:1007D000314A136B03F00303012B3DD026D3022BC8
:1007E0000DD02E490B682C48026B02F07002702A63
:1007F0002CD0026BC2F30212D3400B607047136A15
:100800002649DB0138D5264B0B602348026B02F0EA
:100810000302022AE7D1826A806AC2F30A42C0B2A6
:1008200002FB0333B3FBF0F30B60DCE71D4B1B490A
:100830005B6919481B064CBF4FF400434FF4FA4361
:100840000B60026B02F07002702AD2D1164AA2FB32
:1008500003235B080B607047136A1049D80108D462
:10086000124B0B60126A02F07002102A11D0202A7B
:10087000B9D10B4B0B60B6E70C4B0B60126A02F060
:100880007002102A02D0202ABDD0BEE7084B0B60B0
:10089000BBE7074B0B60A6E700060E400C004020AC
:1008A000001BB70010180E40ABAAAAAA00093D0011
:1008B00000127A00164B984217D9164B984210D95D
:1008C000154B98421AD9154B984213D9144B98429C
:1008D00018D9144B9842144B94BF144A144A1A6006
:1008E0007047114B134A1A6070470F4B4FF08062EC
:1008F0001A6070470C4B104A1A6070470A4B0F4A37
:100900001A607047084B4FF004221A60704700BF0E
:10091000BFF35E017FE7BD023FDB1C04FFCE7B051A
:10092000BFC2DA067FB63908000C0E40000500048D
:10093000000600040001000400030004000200049B
:1009400041B9084901220B6802FA00F023EA0003CA
:100950000B607047034B0122196802FA00F008434C
:1009600018607047280840202DE9F8430025174EED
:100970000127DFF860902C46DFF85C8004E00F2B45
:100980001BD901340F2C14D016F8013B082C07FAA0
:1009900003F145EA0105F2D90F2BF2D8D9F800305E
:1009A000E01F01340222194040F0E060C0470F2CE4
:1009B000EAD1074B1D60BDE8F883D9F80030022268
:1009C00044F0A0601940C047DBE700BF66534020F9
:1009D000240840202808402079D84000034B1B6899
:1009E00023FA00F000F00100704700BF2408402007
:1009F00010B5012382B05B4802225B4C41F2883182
:100A000000901846A04702235849594A087041F2FD
:100A10008831009201201A46A047564A56490323BE
:100A2000107002220091012041F28831A047534A00
:100A300053490423107002220091012041F28831B1
:100A4000A047504A5049052310700222009103200C
:100A500041F28831A0474D4A4D49062310700222C9
:100A60000091012041F28831A0474A4A4A490723B0
:100A7000107002220091012041F28831A047474ABC
:100A800047490823107002220091012041F2883169
:100A9000A047444A44490E231070022200910120CD
:100AA00041F28831A047414A41490F231070022288
:100AB0000091012041F28831A0473E4A3E4910236F
:100AC000107002220091012041F28831A0473B4A78
:100AD0003B490923107002220091012042F210715B
:100AE000A047384A38490A23107002220091012099
:100AF00041F27071A047354A35490923107002222E
:100B00000091032040F6C411A047324A32490A231B
:100B1000107002220091032040F6C411A0472F4A12
:100B20002F490B23107002220091032040F6C411BC
:100B3000A0472C4A2C490C2310700222009103205C
:100B400041F28831A047294A29490D231070022219
:100B50000091032041F28831A047264B187002B063
:100B600010BD00BF68984100C12741004C0C4020D7
:100B7000789841001A0C4020889841004D0C402084
:100B8000949841001C0C4020A49841001B0C40206C
:100B9000B4984100500C4020C49841001D0C4020E6
:100BA000D4984100190C4020E4984100340C4020B6
:100BB000F4984100310C402004994100330C40204E
:100BC000189941004E0C4020289941004F0C4020BC
:100BD00040994100510C402050994100320C402076
:100BE00060994100180C402070994100300C402061
:100BF000809941001E0C402008B5024B9847C0B2B6
:100C000008BD00BFD5284100134B0021134A1878B6
:100C1000134B0244197092F89A30642B08D964205F
:100C200030233A2182F89A000E4A117053707047AF
:100C3000A1F1333103F13002A1FB0313DB08C3EB55
:100C4000431003F13001C3EB800302EB4303054A79
:100C5000DBB21170537070472D084020E0514020E6
:100C60002C084020100040202DE9F04182B09DF872
:100C700020509DF82440002979D1002C6CD0564A90
:100C800013780133DBB2012B40F292800123534CE5
:100C90001370002869D023780127514D303B6678C6
:100CA000297803EB83034F4A4F48BB401770CA199A
:100CB0000144DBB2D2B28DF807309DF80730172A15
:100CC0002A703344A3F13003DBB28DF807309DF86E
:100CD000073081F89A3063D8024492F89A30642B36
:100CE00058D8424903F13002A1FB0313DB08C3EBE0
:100CF000431003F13001C3EB800302EB4303DBB28B
:100D0000217063703A4F12210120DFF80481B84747
:100D100000213848C04728780021374B9847374B87
:100D200000212D4E984700213548C04736213220FA
:100D3000344DB84731782078B1FA81F14909A84794
:100D400031786078A1F10101B1FA81F14909A84730
:100D5000012002B0BDE8F0816DB11F4A13782BB3BA
:100D6000013B1E4C1370002895D11D4DCAE7002091
:100D700002B0BDE8F081C2B1174B23491A788B5CF1
:100D80000133DBB2092B8B5422D82049CB5C134CA6
:100D9000A3547EE7642030233A2182F89A00AFE71B
:100DA0000020287002B0BDE8F08123B90B4C70E739
:100DB00013700A4C6DE7084B13491A788B5C13B11A
:100DC000013BDBB28B541149044CCB5CA35460E76C
:100DD000092439238C54DAE72C08402010004020E5
:100DE0002D084020EA084020E0514020CDCCCCCC5A
:100DF000A5C740009C99410005C2400005CA4000BB
:100E0000B0A94100F9C64000640C4020909941000F
:100E100051CF4000014B1868400870471400402033
:100E2000024B1868C04300F00100704714004020D6
:100E3000084B094903EB500230B41B7892F89A40F2
:100E4000064D03F00F03064A28608C72D37130BC44
:100E5000704700BFB4524020786240201400402008
:100E6000D062402038B51E4C94F880308BB11D4BB9
:100E70001D4A002111601A682378C2F347021B48FB
:100E800003F00F031A491444C37194F89A308B721B
:100E900038BD0120174DA847012805D00220A847DA
:100EA000012801D00F4BE6E7134B1B788BB10D4B9C
:100EB000A17A1A68B2EB410F01D201321A6021798E
:100EC000094A01EB8101106801EB81018142D2D90D
:100ED000CFE7044B1A68002AF1D0013A1A60EEE716
:100EE000B452402014004020C8084020D062402066
:100EF00078624020C5814000660C4020074B1B787B
:100F000003B1704710B50120054CA04700B110BDDA
:100F100023460220BDE81040184700BF13004020C0
:100F2000C5814000014B00221A7070471300402019
:100F300010B50446074B9847A0420AD0064B9B7A4F
:100F40009C4206D2054A0123116803FA04F40C43BB
:100F5000146010BD150E4000B452402038084020E7
:100F600038B5194B1B68ABB9184C238A93B1184D8F
:100F70002A6882B9174A12686AB9174A106850B9C4
:100F8000164903EB83030A6803EB830301329A4299
:100F900005D20A6038BD114B00221A6038BD104BD3
:100FA00008609847237B9842F4D0A27A9A42F1D9FC
:100FB00005200C4B98470028ECD0217B01232A68A0
:100FC0008B4013432B6038BDF0084020B4524020C2
:100FD0003808402034084020300840203C08402099
:100FE000150E4000C581400010B501201B4B9847ED
:100FF00000B910BD1A4B98471A4BC4B298471A4B08
:101000001B7858B1D3B93CB3013C0123E4B2A340EF
:1010100016480021164A0360116010BD2BB1154B14
:101020009B7A9C4213D20134E4B201230F4A104947
:10103000002003FA04F40860146010BD0D4B9A7A86
:10104000944206D201340123E4B2A340E0E71C46F7
:10105000EBE701239340DBE70123D9E7C58140009B
:10106000150E4000210E4000660C4020380840203C
:1010700034084020B4524020002303480349044A66
:1010800003600B601360704738084020340840202C
:101090003008402001231C49F0B583401B4C0A68EE
:1010A000DB43A57A1A4085420A6003D010B1A178CB
:1010B000022908D0164C17482168026819401340CD
:1010C00021600360F0BD124E124D34682968124F42
:1010D00044EA010E3F784EEA020257B1471C4FF036
:1010E000FF301940B84029601042EBD123403360F3
:1010F000F0BD4FF0FF371C4007FA00F03460824328
:10110000E0D10B402B60F0BD38084020B4524020A5
:101110003408402030084020660C4020014B1870F5
:10112000704700BF400840202DE9F04FDFF888925B
:1011300083B0DFF888B2D9F80030DBF80020134321
:10114000944A1268134340F0F280934B1C6814B128
:1011500003B0BDE8F08F914F914B9847914E0090AE
:10116000BB7A02E001341C2C52D0A342FAD30125F1
:10117000D9F8001044F040780222A54044F0806A7B
:1011800040462940B04701284ED0DBF8001002222B
:1011900050462940B047012846D0BA78022A48D0A4
:1011A000D9F80010022240462940B047012872D0E9
:1011B000DBF80010022250462940B047012843D0F6
:1011C000BB78022B7DD0D9F800100222404629407E
:1011D000B047DBF80010504602222940B047BB78E8
:1011E000022B4FD0009BA34200F0B98002220121C4
:1011F00044F0C060B0470222012144F01060B047C3
:10120000BA78022A00F08D800134BB7A1C2CACD154
:101210001D2B40F28F80644B1B78002B98D0634BC2
:1012200003B0BDE8F04F1847614B9847BA78022ADF
:10123000B6D1584B44F0006019682940B0470128E6
:10124000AED15B4B9847ABE7574B1B78002BB7D021
:10125000BB78022B009B2BD0A3427DD0DBF8003063
:101260000222D9F8001040462B432940CBF8003029
:10127000B047DBF80010504602222940B047BB7847
:10128000022BB3D144F00063424A1846116802228F
:101290002940B047A6E7444B1B78002B88D0009B21
:1012A000A34285D0D9F800302B43C9F800307FE73E
:1012B000A34251D0002C4FD0DBF800302B43CBF8A9
:1012C0000030344A44F0006311681846022201934A
:1012D0002940B04701287FF476AF334B1A78002AB3
:1012E0003FF471AF009BA34233D0BA7AA24230D010
:1012F000284B0222D9F8001040461B68294043EAD7
:10130000050E244BC3F800E0B047DBF800100222C2
:1013100050462940B047BA78019B022A7FF466AF55
:10132000B2E7012144F02060B047BB7A1AE7204BB6
:1013300098470AE70133022201211A4C43F0C060AA
:10134000A047B87A02220121104440F0C060A047B3
:1013500061E7184B984736E7164B984730E7009BF4
:101360000222002143F0C060B047DBF80010009B70
:101370000222294043F01060B047BA78022A7FF475
:1013800043AF044B1968009B294043F02060B047ED
:101390003AE700BF30084020F0084020B452402017
:1013A000150E400079D8400040084020610F4000F1
:1013B0000D184000D58340003808402034084020F4
:1013C00038B505461C4B9847032D08D8DFE805F0D3
:1013D000302D2702194A1A4B14681B681C43194BFD
:1013E0001B7843B9C0B224FA00F3DD0716D410F11C
:1013F000FF30F8D238BD144BC0B29A7A90420BDC61
:1014000024FA00F3D90702D515E0DB0706D4013032
:10141000904224FA00F3F8DD4FF0FF3038BD074A60
:101420000A4B14681B681C43D9E7054B1C68D6E7B8
:10143000024B1C68D3E738BD150E40003808402029
:1014400034084020660C4020B45240203008402030
:101450002DE9F84FDFF8CCA02C4B98479AF80A30CA
:1014600098424DD8DFF8C080DFF8C090D8F800204F
:10147000D9F8003013433CD0254F0026254D264C8B
:101480000020B84783460120B847D8F80020D9F893
:10149000003001469AF80A001A4322FA00F3DB07EB
:1014A00002D410F1FF30F8D22B786BB1BBF1FF3FC3
:1014B00023D1013122D10120A047012819D00220D7
:1014C000A047012815D02E700320B847431C15D122
:1014D0000120A04701280CD00220A047012808D0F5
:1014E000D8F800204FF00101D9F8003029701343DB
:1014F000C6D14FF0FF30BDE8F88F5846BDE8F88FF1
:10150000064A0021064B11609847F2E7150E40008D
:10151000C1134000660C4020C581400014004020EB
:1015200079104000B4524020380840203408402050
:101530002DE9F041334B344D1B682A68334E134379
:101540003268134333D0324F3B78E3B9DFF8D080B1
:101550000320C047431C044640D02E4B9847A0426E
:1015600027D201202C4CA047012820D00220A047E0
:1015700001281CD00720A047012818D001232046AD
:101580003B70BDE8F0810220DFF89480C047431C27
:10159000044618D01F4B9847A0420AD901201E4C80
:1015A000A047012803D00220A047012804D14FF012
:1015B000FF342046BDE8F0810720A0470128F6D07F
:1015C00000233B70C4E7154B2A689C7A22FA04F387
:1015D000DD07DFD414F1FF34F8D2DFE732680F4BB8
:1015E00012F00104997A02D007E0D807B5D401348B
:1015F000A14222FA04F3F8DAB3E7064B0024984735
:10160000D7E700BF38084020340840203008402089
:10161000660C4020150E4000C5814000B4524020A9
:10162000C11340000F4B70B59B78012B06D005D33A
:10163000022B15D10C4B9847044602E00B4B984700
:101640000446631C0AD00A4E04200A4D3178A8478C
:1016500031780520B1FA81F1C140A847204670BD1C
:101660000024EEE7B45240203115400051144000F0
:10167000660C40204109400010B501210220054BB5
:101680009847022201214FF0E060034BBDE8104073
:10169000184700BF4109400079D8400010B500212B
:1016A0000220054B9847022200214FF0E060034BD7
:1016B000BDE81040184700BF4109400079D84000FC
:1016C00010B503200A4B9847012800D010BD022214
:1016D00000210848084B984718B9084BBDE810404E
:1016E0001847074A074B1068BDE81040184700BF6D
:1016F000C58140000600000B79D84000ED83400012
:10170000700C402099D0400038B5094D4FF47A71E3
:10171000084B094A2846094CA0470949094B0022B1
:1017200008604FF47A71681EA047074B186038BDF7
:10173000BB5240209D164000791640005DD040000D
:101740006C0C4020C1164000700C4020014A024B36
:1017500010681847700C402099D0400000230249BF
:10176000024A0B601360704744084020480840203C
:1017700010B50520044B9847012800D010BD034B3D
:10178000BDE81040184700BFC5814000A992400045
:1017900038B50C4C23686BB10B4B0C4D1A682B6899
:1017A0009A4205D0D21A012A05D001332B6038BDE8
:1017B0000023236038BD064B984700222B68226027
:1017C000F3E700BF48084020680C40204408402050
:1017D00071174000004B184791174000054900223F
:1017E000054B10B4054C08601A6020605DF8044B8E
:1017F000704700BF680C4020480840204408402043
:10180000014B01221A60704748084020014A024BF0
:10181000106818476C0C402099D0400010B5032088
:10182000074CA04708B1002010BD0520A0470028A4
:10183000F9D10420A047B0FA80F0400910BD00BFE4
:10184000C58140002DE9F04FDFF8F4B18FB0674A51
:10185000DBF80030156801330E2B88BF0023CBF86E
:101860000030634B98470021624B08469847624B13
:1018700093F88040002C40F0A182604B53200293EB
:1018800098475F4BE8B25F4A0021059315460392E3
:1018900098472146A8470BAB2E24182001935A4B9A
:1018A0005A4D00935A4B04930021524B98474620BF
:1018B000029EB047574B98470021059B984700214F
:1018C000039B98474B4B204600219847524B984723
:1018D000002800F03283514B1B78002B40F0F3823C
:1018E000029B012098474E4B98474E4B9847044621
:1018F000002800F0F28200214B48049B98473D4BA2
:1019000000215C209847494B1B68002B40F018834E
:10191000DBF80030062B08D8374B93F8C230012B88
:1019200000F07185022B00F0EE850021314B65201F
:101930009847029C5F20A04700212E4B6C209847BF
:101940005F20A0472B4B002173209847384B9847C6
:10195000002800F0E9825F20A04700217A20254B73
:101960004FF000089847029B5F20A946984709213D
:101970004046204A90472F4C2F4E304F029D0FE09B
:10198000D90700F1B782336823FA08F3DA0740F188
:10199000AE820520A84708F10108B8F1100F1DD04C
:1019A000154B9B78022B236823FA08F3E8D1DA075A
:1019B00000F1A082336823FA08F313F0010F3B68AB
:1019C00023FA08F300F09982DB0708F101084CBF05
:1019D0000A200920A847B8F1100FE1D112210020F8
:1019E000044B9847144E154F029D3BE014004020D5
:1019F000E5C24000A5C74000B452402055C7400092
:101A000005C2400005CA400054084020FD90410036
:101A1000B9C74000150E40001D184000660C40205C
:101A2000F1DE400005474000D0994100F008402019
:101A3000413241003808402034084020300840201E
:101A400050084020DA0700F16082336823FA08F377
:101A5000DB0740F157820520A84708F10108B8F1DB
:101A6000180F1DD0984B9B78022B236823FA08F39C
:101A7000E8D1DB0700F14982336823FA08F313F059
:101A8000010F3B6823FA08F300F04282D80708F1FF
:101A900001084CBF0A200920A847B8F1180FE1D16E
:101AA00012214220894B4D469847894C0AAB09AA1E
:101AB00008A98848A047089C0C2C40F22E82A4F16B
:101AC0000C0001240890059E0021B0470021039FCF
:101AD000B847029B3A20984700210998B047002157
:101AE000B847029B3A20984700210A98B047002146
:101AF000B84712217120754B9847002C00F01882CE
:101B000000217548049B98471B21744C6F4B0020A3
:101B10009847A047F6EE007A07EE100A704B67EE82
:101B2000277A17EE900A98476E4B984706460F465D
:101B3000A0476D4C00226D4B30463946A04700222D
:101B40006B4B6C4CA0476C4B984700230199B0F14C
:101B5000000A0B934B608B60C0F2148399464FEAE6
:101B6000EA36DDF804800024F71700E01C46304612
:101B700039460A220023A84702F1300E3046394682
:101B80000A22002308F801EBA84706460F46631C0B
:101B900056EA0702EAD109F1FF320198009903449D
:101BA0000A4413F8011D984202F8011FF9D104EB11
:101BB000090200992E2309F10109561C0C444FEA31
:101BC0004A4A023204F809300E44002301E0012B96
:101BD00018DC4FF0000B4FEA8A00013201334FEA64
:101BE0008B0444EA9A711AEB000A4BEB010B1AEBD7
:101BF0000A0A4BEB0B0B0BF1300106F8011F5AEAF6
:101C00000B01E4D1022B05D1531E0099C95C302988
:101C100000F0CC83002300998B5400213748039BAC
:101C2000984700213648049B9847364C1B212A20B0
:101C3000264B9847A0470028C0F2A182A04704463F
:101C4000002301999C420B934B608B60C0F2908201
:101C50009A46E613DDF804904FF00008F71700E00D
:101C60009846304639460A220023A84702F1300E32
:101C7000304639460A22002309F801EBA8470646F8
:101C80000F4608F1010356EA0702E9D10AF1FF32D3
:101C90000198009903440A4413F8011D984202F880
:101CA000011FF9D108EB0A026404009F2E23561C81
:101CB0000AF1010AB84420463C46023208F80A30CC
:101CC0000023344422E000BFB4524020A5C74000A6
:101CD000B905400060180E40DC99410079E34000EE
:101CE0004987410049824100F18741000000E040FE
:101CF0000000E03F8D844100518D41005408402098
:101D0000E499410095694100012B12DC0021860015
:101D1000013201334FEA810E4EEA90778019794102
:101D20000018494101F1300604F8016F50EA01063C
:101D3000EAD1022B05D1531E0099C95C302900F06D
:101D40003183002300998B5400217F48039B9847DF
:101D500000217E48049B98471B2160207C4B9847BC
:101D60007C4C0320A047012800F01C810520A047DF
:101D7000012800F017820420A047012800F00D83FD
:101D80000120A047012800F022830220A04701285B
:101D900000F0FE820720A047012800F0B9836E4BB7
:101DA0006E4C9847002840F006816D4B98470028FC
:101DB00000F012836B4B02221A60FFE06A4CA047CE
:101DC0000028C0F2E282A04700250BAA674BC1178A
:101DD00016460192664CD3F89C212B46A047041E60
:101DE0000B957560B560C0F2E982574BAA46009327
:101DF000E613DDF804904FF000085E4DF71700E0A1
:101E00009846304639460A220023A84702F1300E90
:101E1000304639460A22002309F801EBA847064656
:101E20000F4608F1010356EA0702E9D10AF1FF3231
:101E30000198009903440A4413F8011D984202F8DE
:101E4000011FF9D108EB0A06009864040AF1010A9F
:101E5000771C80442E2122460236074408F80A10D7
:101E6000002401E0012C12DC002390000136013433
:101E70004FEA830E4EEA927112184B4192185B4161
:101E800003F1300107F8011F52EA0301EAD1022CE5
:101E900005D1731E009AD25C302A00F0A68200237E
:101EA000009A9355344B00212748422403939847C6
:101EB000324B0021324804939847324B2C20029336
:101EC000314B0593F0E40020B047304B9847304B3E
:101ED0009847044600287FF40EAD2E4B9847002803
:101EE00000F0588121462C48049B984707E50720BD
:101EF000A84750E50620A8474DE5D807F7D50820A4
:101F0000A84748E50720A847A7E50620A847A4E575
:101F1000D907F7D50820A8479FE5002C40F0FC839F
:101F20000C2318460893CEE5029B4520984714E5FC
:101F300021461A48049B9847E6E5194B9847D4E494
:101F4000029B4F209847F0E454084020E899410054
:101F5000A5C74000C581400029DE400051CF4000A8
:101F600061DE40004C084020F13C4100800C4020E4
:101F70005D904100FD90410005CA4000B9C7400096
:101F8000CC99410055C7400005C24000DDDE40004D
:101F9000054740001D634100D4994100E09941008C
:101FA00005DF40000021AF48AF4CA047AF4B98473A
:101FB00000283FF4FAAEAE4B01221A60272380219D
:101FC0000020AC4E1A46B047AB4B24213220984734
:101FD0000021AA48A0470DF11B010DF11A0207A824
:101FE000A74B98470146002800F0B880A24B2E214D
:101FF000002098479DF81B30012B00F0FA81022B3E
:1020000000F0FC810021059B9DF81A009847039B76
:102010000021984700219B48049CA0470021079875
:10202000A0479DF81A109DF81B00974B9847372141
:10203000964C914B00209847A047DFED957A07EE2C
:10204000100A944B67EE277A17EE900A98470F46CE
:102050000646A047F6EE007A07EE100A32463B46E7
:102060008D4C002067EE277AF5EEC07AF1EE10FA7B
:10207000ACBF8A498A49A0478A4B984700230199F7
:10208000041E0B934B608B606BDB9A46E613DDF806
:1020900004904FF00008F71700E0984630463946A4
:1020A0000A220023A84702F1300E304639460A22A0
:1020B000002309F801EBA84706460F4608F1010383
:1020C00056EA0702E9D10AF1FF3201980099034468
:1020D0000A4413F8011D984202F8011FF9D108EBD8
:1020E0000A026404009F2E23561C0AF1010AB84418
:1020F00020463C46023208F80A300023344401E00E
:10210000022B12DC00218600013201334FEA810EDE
:102110004EEA9077801979410018494101F1300663
:1021200004F8016F50EA0106EAD1012B05D0531ED5
:102130000099C95C302900F03D81002300998B543F
:10214000039B002158489847584B93F88030012B47
:102150002DD0574B98470FB0BDE8F08F4A4B9847AA
:1021600065E72D23009A64424FF0010A13708DE752
:102170002D23009A64424FF0010A137069E5A047CD
:1021800044425DE52D23009ACAF1000A4FF001098F
:102190001370E4E40146049B46489847464B984731
:1021A000FFF7ADBB002145482F4CA047FEE6444B4E
:1021B000984704460028CCD10146049B41489847E3
:1021C000414B9847414AC0032346D2F89C21C1178E
:1021D0003F4CA047002806460F4671F10003C0F2AD
:1021E0003C82B6F5004F77F1000380F21181B6F51D
:1021F000A47F77F10003C0F299810218DFF8D48040
:102200004FF0FF3941EB010312184B4156015F01BA
:10221000B61847EAD2675F4136184F41464577EB1B
:102220000903C0F254824FF4A4720023B242BB41AE
:1022300002DA0020029B9847002E77F10003C0F2DB
:102240005E8200230199B2469E420B934B608B60E5
:10225000C0F2498299464FEAEA36DDF8048000244C
:10226000F7173AE0EC99410051CF400029DE4000D9
:102270004C08402041C54000A5C740001C9A4100C1
:10228000F52841002C9A410029DF4000A1F14000CF
:1022900000008046498741008D8441000000E03FF6
:1022A0000000E0BF518D410054084020B45240204E
:1022B000D1DE4000D899410015DF4000F49941007B
:1022C0001D184000309A41006D454000800C4020B0
:1022D0005D904100B8FEFFFF1C46304639460A2299
:1022E0000023A84702F1300E304639460A22002367
:1022F00008F801EBA84706460F46631C56EA07029A
:10230000EAD109F1FF320198009903440A4413F815
:10231000011D984202F8011FF9D104EB090500984C
:1023200009F101092E2104446E1C4FEA4A4202358C
:1023300004F809100644002401E0012C11DC0023FC
:102340009000013501349F0047EA927112184B4109
:1023500092185B4103F1300106F8011F52EA0301B4
:10236000EBD1022C05D16B1E009AD25C302A00F012
:10237000C8810023009A5355039B0021BB4898470E
:102380000021BB48049B9847E3E6A04740421BE579
:102390000021B848B84CA04708E60021B748B64C21
:1023A000A04703E600220099CA54CDE40022009918
:1023B000CA5432E400220099CA54C1E6AB4B6442CD
:1023C0004FF0010A1A4600932D23137010E50021E7
:1023D000AB48A94CA047E9E5AA4B9847002800F074
:1023E0009C80A94B03221A60E8E500220099CA5498
:1023F00058E50021A548049B984703E60021A4481E
:10240000049B9847FEE5029B53209847FFF78DBA3F
:10241000A04A4FF0FF33904271EB0303C0F22181D9
:102420004FF4A472002382428B4102DA0020029B07
:102430009847002301999E420B934B608B60C0F23A
:1024400033814FEAE6389B4676044FEAE879DDF8B7
:1024500004A0002400E01C46404649460A2200230E
:10246000A84702F1300E404649460A2200230AF8E6
:1024700001EBA84780468946631C58EA0902EAD165
:102480000BF1FF320198009903440A4413F8011D2F
:10249000984202F8011FF9D104EB0B00009A0BF1EE
:1024A00001034FF02E0E451C002113440230154449
:1024B00003F804E001E0012911DC0027B20001303B
:1024C0000131BC0044EA9673B6185F41B6197F41EA
:1024D00007F1300305F8013F56EA0703EBD1022963
:1024E00005D1431E009AD25C302A00F0E880002318
:1024F000009A1354039B00215C48984700216648CA
:10250000049B984725E6029B54209847FFF70DBA95
:1025100000216248584CA04748E5614B9847002885
:102520003FF44CAD584B04221A6047E54C01594E1C
:1025300042014FF0FF3744EAD063121A63EB010304
:102540004FEA820E9C001EEB000844EA92744FEAA8
:10255000C80244EB0109B2424FEAC90343EA587387
:102560009046994679EB0703C0F2AD804FF4A47210
:102570000023424573EB0903C0F2CA80B8F1000F93
:1025800079F10003C0F2C1800021019AC24688455A
:102590000B9151609160C0F29E8089464FEAEA3605
:1025A000DDF804800024F71700E01C463046394669
:1025B0000A220023A84702F1300E304639460A228B
:1025C000002308F801EBA84706460F46631C56EAAD
:1025D0000702EAD109F1FF320198009903440A4445
:1025E00013F8011D984202F8011FF9D104EB090507
:1025F000009809F101092E2104446E1C4FEA4A4259
:10260000023504F809100644002401E0012C11DC15
:1026100000239000013501349F0047EA927112189F
:102620004B4192185B4103F1300106F8011F52EA59
:102630000301EBD1022C04D16B1E009AD25C302A2C
:1026400059D00023009A5355039B0021074898470F
:1026500000211448049B98477BE5464261EB410703
:10266000BFE5029B01209847E3E600BF54084020E5
:10267000389A41000C9A410051CF4000FC9941002A
:10268000049A41007DDE40004C084020249A41001D
:10269000289A4100B8FEFFFF349A4100149A410085
:1026A000B5DE40003C9A41002D23009A0026DFF859
:1026B00070804FF0FF394FF0010B1370C7E6002216
:1026C0000099CA5416E7029B0120984756E7029BDF
:1026D00001209847B0E52D23009AC8F1000A4FF079
:1026E000010913705AE72D23009AC6F1000A4FF032
:1026F00001091370AFE500220099CA54A4E776429D
:102700009FE500220099CA5436E6D8F100083BE75D
:10271000029B0020984731E720460024FFF7D3B9F9
:102720000000FFFF2DE9F043134B83B09847134B94
:1027300006469847124B07469847124B80469847E3
:10274000114B814698470446104B9847104DC0B234
:10275000E4B201905FFA89F300945FFA88F2F9B26B
:10276000F0B2A84710B10B4B00221A600A4B03B01D
:10277000BDE8F043184700BF29DE400045DE4000B9
:1027800061DE40007DDE400099DE4000B5DE4000A5
:1027900099BE40004C084020D1DE40002DE9F04FAA
:1027A0002DED028B89B0AC4B9847AC4B04AA03A922
:1027B00002A8AB4F9847AB4B98470021AA4B05AEF8
:1027C000084698470021A94BA9489847B847A94B04
:1027D0009847A94B984704460D46B8472046002223
:1027E000A64B2946A64FB847A64C0022A64BA047A9
:1027F000A64B98470023041E73600593B360C0F294
:10280000CD839B46A24B01934FEAE438B2460027A2
:10281000A04D4FEAE87900E01F46404649460A22AB
:102820000023A84702F1300E404649460A22002301
:102830000AF801EBA847804689467B1C58EA090242
:10284000EAD10BF1FF32019933440A4413F8011D18
:102850009E4202F8011FF9D107EB0B0E01986404A8
:102860000BF1010B0EF1010C07442E2122460EF153
:10287000020E844407F80B10002401E0032C12DC44
:10288000002390000EF1010E01349F0047EA92717F
:1028900012184B4192185B4103F130010CF8011FF3
:1028A00052EA0301EAD1012C06D00EF1FF33019A5E
:1028B000D25C302A00F0A8830023019A02F80E307F
:1028C00000217348744B98472D210020664B984790
:1028D00000217248654B9847714B9847714B984758
:1028E000714B984700216C4B9847092100205E4BA3
:1028F000984700216D485D4B98479DED028ADFEDBA
:102900006C7A5C4B68EE277A5E4C17EE900A98471B
:10291000B5EEC08A0B4602460020F1EE10FAACBFBD
:1029200059496449A047594B98470023B0F1000B1F
:1029300005937360B360C0F25F839A464FEAEB3849
:10294000374600244FEAE87900E01C4640464946F5
:102950000A220023A84702F1300E404649460A22C7
:10296000002307F801EBA84780468946631C58EA14
:102970000902EAD10AF1FF32019933440A4413F8FB
:10298000011D9E4202F8011FF9D104EB0A070198CC
:102990004FEA4B4B0AF1010A044407F1010E2E21C4
:1029A00002375A46864404F80A10002401E0032C3A
:1029B00012DC00239000013701344FEA830C4CEA0B
:1029C000927112184B4192185B4103F130010EF8DD
:1029D000011F52EA0301EAD1012C05D07B1E019AA6
:1029E000D25C302A00F024830023019AD3550021C1
:1029F0002748294B9847122100201B4B984700215C
:102A00002D481A4B98479DED038ADFED297A194B23
:102A100068EE277A1B4C17EE900A9847B5EEC08AED
:102A20000B4602460020F1EE10FAACBF16492149D0
:102A3000A047164B98470023B0F1000B0593736035
:102A4000B360C0F2D1829A464FEAEB383746002491
:102A50004FEAE87933E000BF354E4100C1534100F1
:102A600079E34000E5C24000A5C74000B9C7400077
:102A7000409A410049874100498241000000E040FE
:102A8000F18741008D8441000000E03F518D4100FD
:102A900054084020FD90410005CA4000449A41007E
:102AA0005D4841005591410005C24000489A4100EF
:102AB000000000470000E0BF4C9A41001C46404621
:102AC00049460A220023A84702F1300E40464946F3
:102AD0000A22002307F801EBA84780468946631CB9
:102AE00058EA0902EAD10AF1FF32019933440A4453
:102AF00013F8011D9E4202F8011FF9D104EB0A07E9
:102B000001984FEA4B4B0AF1010A044407F1010E08
:102B10002E2102375A46864404F80A10002401E0A8
:102B2000032C12DC00239000013701344FEA830CA0
:102B30004CEA927112184B4192185B4103F130013B
:102B40000EF8011F52EA0301EAD1012C05D07B1EC9
:102B5000019AD25C302A00F06F820023019AD3558B
:102B60000021B148B14B98471B210020B04B98473A
:102B70000021B048B04B98479DED048ADFEDAF7A55
:102B8000AF4B68EE277AAF4C17EE900A9847B5EE38
:102B9000C08A0B4602460020F1EE10FAACBFAA49EB
:102BA000AA49A047AA4B98470023B0F1000B059310
:102BB0007360B360C0F210829A464FEAEB38374632
:102BC00000244FEAE87900E01C46404649460A22C4
:102BD0000023A84702F1300E404649460A2200234E
:102BE00007F801EBA84780468946631C58EA0902AA
:102BF000EAD10AF1FF32019933440A4413F8011D66
:102C00009E4202F8011FF9D104EB0A0701984FEA2E
:102C10004B4B0AF1010A044407F1010E2E21023741
:102C20005A46864404F80A10002401E0032C12DC02
:102C300000239000013701344FEA830C4CEA927173
:102C400012184B4192185B4103F130010EF8011F3D
:102C500052EA0301EAD1012C05D07B1E019AD25C15
:102C6000302A00F0D5810023019AD35500216E4807
:102C70006E4B9847242100206D4B9847754C0021DE
:102C80006D4B75489847A047DFED6C7A07EE100A48
:102C90006B4B67EE277A17EE900A98478946804675
:102CA000A04707EE900A4B464246664CF5EEC07AC6
:102CB0000020F1EE10FAACBF63496449A047644BB1
:102CC00098470023041E05937360B360C0F27D81B2
:102CD0009B464FEAE438B24600274FEAE87900E025
:102CE0001F46404649460A220023A84702F1300EFB
:102CF000404649460A2200230AF801EBA8478046CD
:102D000089467B1C58EA0902EAD10BF1FF3201998E
:102D100033440A4413F8011D9E4202F8011FF9D101
:102D200007EB0B0E019864040BF1010B0EF1010C83
:102D300007442E2122460EF1020E844407F80B10A0
:102D4000002401E0032C12DC002390000EF1010EA0
:102D500001349F0047EA927112184B4192185B416F
:102D600003F130010CF8011F52EA0301EAD1012CF2
:102D700006D00EF1FF33019AD25C302A00F04C816C
:102D80000023019A02F80E3000212748274B98476C
:102D90002D210020264B984700213048264B98478C
:102DA0002F4B98470023041E05937360B360C0F255
:102DB00005819B464FEAE438B24600274FEAE8799E
:102DC00000E01F46404649460A220023A84702F178
:102DD000300E404649460A2200230AF801EBA84774
:102DE000804689467B1C58EA0902EAD10BF1FF3282
:102DF000019933440A4413F8011D9E4202F8011F51
:102E0000F9D107EB0B0E019864040BF1010B0EF1E5
:102E1000010C07442E2122460EF1020E844407F8CD
:102E20000B10002420E000BF5408402005CA4000D9
:102E3000A5C74000509A4100B9C7400000000047B4
:102E4000498741008D8441000000E03F0000E0BF61
:102E5000518D410055054100549A4100589A410056
:102E6000F1564100012C12DC002390000EF1010EFE
:102E700001349F0047EA927112184B4192185B414E
:102E800003F130010CF8011F52EA0301EAD1022CD0
:102E900006D10EF1FF33019AD25C302A00F0C080D7
:102EA0000023019A02F80E3000216548654B9847CF
:102EB00036210020644B984700216448644B9847B2
:102EC000644B98470023041E05937360B3606EDB68
:102ED0009B464FEAE438B24600274FEAE87900E023
:102EE0001F46404649460A220023A84702F1300EF9
:102EF000404649460A2200230AF801EBA8478046CB
:102F000089467B1C58EA0902EAD10BF1FF3201998C
:102F100033440A4413F8011D9E4202F8011FF9D1FF
:102F200007EB0B00019A0BF1010B2E23461C1744F3
:102F300064040230164407F80B30002101E0012937
:102F400011DC0025A20001300131AF0047EA947383
:102F5000A4185D4124196D4105F1300306F8013FC5
:102F600054EA0503EBD1022904D1431E019AD25C35
:102F7000302A59D00023019A1354324B0021304893
:102F80009847354B984710B1344B00221A60344BA8
:102F9000984709B0BDEC028BBDE8F08F284B644226
:102FA0004FF0010B1A4601932D2313702CE42D23AF
:102FB000019A64424FF0010B13708AE72D23019AA6
:102FC00064424FF0010B1370F4E62D23019A644222
:102FD0004FF0010B13707CE62D23019ACBF1000B0F
:102FE0004FF0010A1370E8E52D23019ACBF1000B95
:102FF0004FF0010A137027E52D23019ACBF1000B46
:103000004FF0010A137099E400220199CA5457E461
:1030100000220199CA5429E600220199CA54B3E654
:1030200000220199CA543FE700220199CA54A4E73B
:1030300000220199CA54DAE400220199CA548FE5AA
:103040005408402005CA4000A5C740005C9A4100D2
:10305000B9C740000D57410045DE40004C084020F4
:10306000D1DE40002DE9F04FB74B4FF47A742DEDCF
:10307000028B87B098470021B44B0846984700213F
:10308000B348B44B984709210020B04B9847002122
:10309000B148B04B9847B14B9847B14B06460F46E5
:1030A000984704FB00F4002CC0F22383002E4FEA63
:1030B000E43477F10003C0F2F182AA4D3946AA4BFD
:1030C000304698470021A94B98472E20A847092C45
:1030D00040F2D882632C40F2D78200252046A44BD0
:1030E00003AE294698472946A04B98472846122107
:1030F000964B984729469F48964B98479E4A9F4B28
:1031000092F83C009847041E03957560B560C0F2C4
:10311000CF829B4BAB4601934FEAE438B24600277F
:10312000984D4FEAE87900E01F46404649460A229A
:103130000023A84702F1300E404649460A220023E8
:103140000AF801EBA847804689467B1C58EA090229
:10315000EAD10BF1FF32019933440A4413F8011DFF
:103160009E4202F8011FF9D107EB0B0E019864048F
:103170000BF1010B0EF1010C07442E2122460EF13A
:10318000020E844407F80B10002401E0072C12DC27
:10319000002390000EF1010E01349F0047EA927166
:1031A00012184B4192185B4103F130010CF8011FDA
:1031B00052EA0301EAD1012C06D00EF1FF33019A45
:1031C000D25C302A00F09D820023019A02F80E3072
:1031D00000216B48654B98471B2100205B4B9847AB
:1031E000002169485B4B9847684BDFED697A93EDA6
:1031F000008A684B68EE277A674C17EE900A98476A
:10320000B5EEC08A0B4602460020F1EE10FAACBFC4
:1032100062496349A047634B98470023B0F1000B14
:1032200003937360B360C0F24C829A464FEAEB3866
:10323000374600244FEAE87900E01C4640464946FC
:103240000A220023A84702F1300E404649460A22CE
:10325000002307F801EBA84780468946631C58EA1B
:103260000902EAD10AF1FF32019933440A4413F802
:10327000011D9E4202F8011FF9D104EB0A070198D3
:103280004FEA4B4B0AF1010A044407F1010E2E21CB
:1032900002375A46864404F80A10002401E0032C41
:1032A00012DC00239000013701344FEA830C4CEA12
:1032B000927112184B4192185B4103F130010EF8E4
:1032C000011F52EA0301EAD1012C05D07B1E019AAD
:1032D000D25C302A00F01D820023019AD3550021D0
:1032E0002748224B984724210020184B984700215B
:1032F0002D48184B98472D4BDFED257A93ED008A2A
:10330000244B68EE277A244C17EE900A9847B5EEC6
:10331000C08A0B4602460020F1EE10FAACBF1F49EE
:103320001F49A0471F4B98470023B0F1000B0393A0
:103330007360B360C0F2D5819A464FEAEB383746E6
:1033400000244FEAE87934E0E5C24000A5C7400018
:10335000A4994100B9C74000AC9941000D3B410020
:10336000C938410055C7400059C2400005CA400055
:1033700005C24000B4994100F04F4020713D41002A
:1033800054084020FD904100BC9941005865402000
:1033900000000047498741008D8441000000E03F64
:1033A0000000E0BF518D4100C099410050654020B0
:1033B0001C46404649460A220023A84702F1300E27
:1033C000404649460A22002307F801EBA8478046F9
:1033D0008946631C58EA0902EAD10AF1FF320199D1
:1033E00033440A4413F8011D9E4202F8011FF9D12B
:1033F00004EB0A0701984FEA4B4B0AF1010A044417
:1034000007F1010E2E2102375A46864404F80A10AD
:10341000002401E0032C12DC00239000013701346A
:103420004FEA830C4CEA927112184B4192185B419F
:1034300003F130010EF8011F52EA0301EAD1012C19
:1034400005D07B1E019AD25C302A00F066810023F1
:10345000019AD3550021B548B54B98472D2100203E
:10346000B44B98470021B448B44B9847B44BDFEDB8
:10347000B57A93ED008AB44B68EE277AB34C17EE19
:10348000900A9847B5EEC08A0B4602460020F1EE3E
:1034900010FAACBFAE49AF49A047AF4B98470023E5
:1034A000B0F1000B03937360B360C0F212819A46CF
:1034B0004FEAEB38374600244FEAE87900E01C4633
:1034C000404649460A220023A84702F1300E4046F2
:1034D00049460A22002307F801EBA847804689469F
:1034E000631C58EA0902EAD10AF1FF320199334418
:1034F0000A4413F8011D9E4202F8011FF9D104EBA2
:103500000A0701984FEA4B4B0AF1010A044407F1FC
:10351000010E2E2102375A46864404F80A10002470
:1035200001E0032C12DC00239000013701344FEA44
:10353000830C4CEA927112184B4192185B4103F1D3
:1035400030010EF8011F52EA0301EAD1012C05D027
:103550007B1E019AD25C302A00F0D7800023019AAA
:10356000D35500217148724B984736210020714B8A
:10357000984700217948714B9847794BDFED717A74
:1035800093ED008A704B68EE277A704C17EE900A24
:103590009847B5EEC08A0B4602460020F1EE10FABD
:1035A000ACBF6B496B49A0476B4B98470023041E87
:1035B00003937360B3606ADB9B464FEAE438B2461C
:1035C00000274FEAE87900E01F46404649460A22B4
:1035D0000023A84702F1300E404649460A22002344
:1035E0000AF801EBA847804689467B1C58EA090285
:1035F000EAD10BF1FF32019933440A4413F8011D5B
:103600009E4202F8011FF9D107EB0B00019A0BF162
:10361000010B2E23461C174464040230164407F89D
:103620000B30002101E0032911DC0025A20001304C
:103630000131AF0047EA9473A4185D4124196D412C
:1036400005F1300306F8013F54EA0503EBD10129E7
:1036500004D0431E019AD25C302A62D00023019A22
:103660001354334B0021314898473E4B984710B1D3
:103670003D4B00221A603D4B07B0BDEC028BBDE80C
:10368000F04F18473020A8473020A84725E52D23C4
:10369000019A64424FF0010B13708EE7013647F137
:1036A000000756EA070328D0314DC4F57A7405E5C2
:1036B0001E4B64424FF0010B1A4601932D231370E9
:1036C0002AE52D23019ACBF1000B4FF0010A13706C
:1036D000ACE52D23019ACBF1000B4FF0010A1370DA
:1036E000E6E62D23019ACBF1000B4FF0010A13708F
:1036F00023E604F5FF447F34D8E41D4D2D20A84770
:10370000D3E700220199CA5462E500220199CA5404
:1037100027E700220199CA54E1E500220199CA5421
:1037200098E600220199CA549BE700BF5408402044
:1037300005CA4000A5C74000C4994100B9C7400070
:103740005C65402000000047498741008D844100AE
:103750000000E03F0000E0BF518D4100C8994100EA
:103760005465402045DE40004C084020D1DE40003A
:1037700055C740002DE9F04FB14B87B09847002165
:10378000B04B4FF47A74084698470021AE48AF4BCF
:10379000984709210020AB4B98470021AC48AB4B20
:1037A0009847AC4B9847AC4B06460F46984704FBEE
:1037B00000F4002CC0F22283002E4FEAE43477F1AB
:1037C0000003C0F2F182A54D3946A54B304698471B
:1037D0000021A44B98472E20A847092C40F2D882FC
:1037E000632C40F2D782002520469F4B03AE29462A
:1037F000984729469B4B984728461221914B98475A
:1038000029469A48914B9847994A9A4B92F83C001E
:103810009847041E03957560B560C0F2CF82964B41
:10382000AB4601934FEAE438B2460027934D4FEA86
:10383000E87900E01F46404649460A220023A8478F
:1038400002F1300E404649460A2200230AF801EBF5
:10385000A847804689467B1C58EA0902EAD10BF149
:10386000FF32019933440A4413F8011D9E4202F8C5
:10387000011FF9D107EB0B0E019864040BF1010B4A
:103880000EF1010C07442E2122460EF1020E844453
:1038900007F80B10002401E0072C12DC0023900035
:1038A0000EF1010E01349F0047EA927112184B414C
:1038B00092185B4103F130010CF8011F52EA030139
:1038C000EAD1012C06D00EF1FF33019AD25C302AE6
:1038D00000F09C820023019A02F80E300021664815
:1038E000604B98471B210020564B984700216448A5
:1038F000564B9847634B984707EE900A0023FEEE1D
:10390000E87A0393736017EE904AB3609C42C0F26A
:103910005E829B464FEAE438B24600274FEAE879D8
:1039200000E01F46404649460A220023A84702F10C
:10393000300E404649460A2200230AF801EBA84708
:10394000804689467B1C58EA0902EAD10BF1FF3216
:10395000019933440A4413F8011D9E4202F8011FE5
:10396000F9D107EB0B0E019864040BF1010B0EF17A
:10397000010C07442E2122460EF1020E844407F862
:103980000B10002401E0032C12DC002390000EF148
:10399000010E01349F0047EA927112184B419218B0
:1039A0005B4103F130010CF8011F52EA0301EAD137
:1039B000012C06D00EF1FF33019AD25C302A00F0C0
:1039C0002D820023019A02F80E3000212A48254B4F
:1039D0009847242100201B4B98472B4C00211B4B60
:1039E0002A489847A047DFED2A7A07EE100A294BAC
:1039F00067EE277A17EE900A984789468046A047D7
:103A000007EE900A4B4642460020F5EEC07A224C63
:103A1000F1EE10FAACBF21492149A047214B98474C
:103A20000023B0F1000B03937360B360C0F2DE813A
:103A30009A464FEAEB38374600244FEAE87934E0FB
:103A4000E5C24000A5C74000609A4100B9C74000E8
:103A5000AC9941000D3B4100C938410055C74000B9
:103A600059C2400005CA400005C24000B499410057
:103A7000F04F4020713D410054084020FD9041002E
:103A8000689A4100093D41002DF74000709A4100BD
:103A900000000047498741008D8441000000E03F5D
:103AA0000000E0BF518D41001C46404649460A22B5
:103AB0000023A84702F1300E404649460A2200235F
:103AC00007F801EBA84780468946631C58EA0902BB
:103AD000EAD10AF1FF32019933440A4413F8011D77
:103AE0009E4202F8011FF9D104EB0A0701984FEA40
:103AF0004B4B0AF1010A044407F1010E2E21023753
:103B00005A46864404F80A10002401E0032C12DC13
:103B100000239000013701344FEA830C4CEA927184
:103B200012184B4192185B4103F130010EF8011F4E
:103B300052EA0301EAD1012C05D07B1E019AD25C26
:103B4000302A00F06F810023019AD3550021B94833
:103B5000B94B98472D210020B84B9847B84C00210D
:103B6000B84BB9489847A047DFEDB87A07EE100A7E
:103B7000B74B67EE277A17EE900A9847894680463A
:103B8000A04707EE900A4B4642460020F5EEC07A69
:103B9000B04CF1EE10FAACBFAF49B049A047B04B02
:103BA00098470023B0F1000B03937360B360C0F239
:103BB00015819A464FEAEB38374600244FEAE879F8
:103BC00000E01C46404649460A220023A84702F16D
:103BD000300E404649460A22002307F801EBA84769
:103BE00080468946631C58EA0902EAD10AF1FF328D
:103BF000019933440A4413F8011D9E4202F8011F43
:103C0000F9D104EB0A0701984FEA4B4B0AF1010A7C
:103C1000044407F1010E2E2102375A46864404F867
:103C20000A10002401E0032C12DC0023900001376D
:103C300001344FEA830C4CEA927112184B419218EE
:103C40005B4103F130010EF8011F52EA0301EAD192
:103C5000012C05D07B1E019AD25C302A00F0DA805C
:103C60000023019AD35500217248734B984736219F
:103C70000020724B98477B4C0021724B7A48984742
:103C8000A047DFED727A07EE100A714B67EE277AD4
:103C900017EE900A984789468046A04707EE900A9B
:103CA0004B4642466B4CF5EEC07A0020F1EE10FA1E
:103CB000ACBF69496949A047694B98470023041E76
:103CC00003937360B36068DB9B464FEAE438B24607
:103CD00000274FEAE87900E01F46404649460A229D
:103CE0000023A84702F1300E404649460A2200232D
:103CF0000AF801EBA847804689467B1C58EA09026E
:103D0000EAD10BF1FF32019933440A4413F8011D43
:103D10009E4202F8011FF9D107EB0B00019A0BF14B
:103D2000010B2E23461C174464040230164407F886
:103D30000B30002101E0032911DC0025A200013035
:103D40000131AF0047EA9473A4185D4124196D4115
:103D500005F1300306F8013F54EA0503EBD10129D0
:103D600004D0431E019AD25C302A5FD00023019A0E
:103D70001354314B00212F4898473C4B984710B1C2
:103D80003B4B00221A603B4B07B0BDE8F04F184791
:103D90003020A8473020A84725E52D23019A64420A
:103DA0004FF0010B137090E7013647F1000756EA18
:103DB000070327D0304DC4F57A7405E51D4B6442E6
:103DC0004FF0010B1A4601932D2313702AE52D2382
:103DD000019A64424FF0010B13709BE52D23019A69
:103DE000CBF1000B4FF0010A1370E3E62D23019A8B
:103DF000CBF1000B4FF0010A13701AE604F5FF44F3
:103E00007F34D9E41C4D2D20A847D4E70022019926
:103E1000CA5463E500220199CA5424E7002201999B
:103E2000CA54D2E500220199CA548FE600220199B2
:103E3000CA549EE75408402005CA4000A5C7400068
:103E400039F74000B9C74000789A410000000047A8
:103E5000498741008D8441000000E03F0000E0BF41
:103E6000518D410045F740007C9A410045DE4000FD
:103E70004C084020D1DE400055C7400010B5124B21
:103E8000984750B9114B1B685BB1012B0FD0022B27
:103E900010D0032B11D0042B12D00D4BBDE81040D5
:103EA00018470C4B98470A4BBDE8104018470A4B7F
:103EB0009847F2E7094B9847EFE7094B9847ECE73B
:103EC000084B9847E9E700BF2DC040004C08402050
:103ED0005DC3400045184000252740009D27400055
:103EE000653040007537400010B501232B4C0A2285
:103EF0004BF680312A48A04701234FF4C8724BF695
:103F000080312848A04701234FF4C8624BF6803126
:103F10002548A047012364224BF680312348A0475F
:103F200001234FF448724BF680312148A04701230A
:103F30004FF4C8724BF680311E48A047012300227F
:103F40004BF2B8511C48A047012342F210724BF6C5
:103F500080311A48A0471A4900220123086049F617
:103F600060711848A0473220174B9847174B984765
:103F7000174B9847174B9847174A00211420174BA7
:103F80009847174B9847012300224BF2B031154850
:103F9000A047154BBDE81040184700BF0173410012
:103FA00079DA4000AD9640007D3E4000D5174000D4
:103FB0008DE1400029114000250F4000796141004A
:103FC000740C40201D4D4000DD174000F1094000F9
:103FD0000DD24000E5C240002CA04100A5C4400025
:103FE0005DC34000B582400009174000014B93F9C2
:103FF0000000704718004020014B1878704700BF40
:104000006D0840202DE9F04B2F4B9847041E05DB2F
:104010002E4B1B7813B92E4B1B780BB1BDE8F08BE0
:104020002C4B9847002840D02B4D01222B4B286861
:104030001A708442F2D02A4EB0478046294FB847C2
:10404000B8EB00024FEAE87969EB0103002A73F14B
:1040500000032DDB2868B0478046B8474FEAE8796F
:10406000B8EB000869EB0109C346CC461E4A1F4F56
:10407000D2F89C313A68002AB8BF524202EB530290
:1040800000235A4573EB0C03C8DA20462C60B04776
:104090003B68174AC31A28681360B047154B164A85
:1040A0001B68C01A1060BDE8F08B0C4B1870B5E7A8
:1040B000B847804628688946B047B8EB000269EBEC
:1040C000E07393469C46D1E7251640006D084020DA
:1040D0006E084020AD69410084084020190040204E
:1040E00045464000ED3A4100800C402074084020D5
:1040F0007C0840207808402080084020014B0122A5
:104100001A70704790084020014B01221A707047C6
:104110006F0840202DE9F0432D4B83B098472D4B7D
:1041200098472D4A2D4E15783060002D3ED100283D
:1041300038DB2B4FB8472B4BDFF8E08001AA19681A
:10414000DFF8DC904346401A274CC117A0470446CD
:10415000C9F80000002833D03068B847D9F80030DB
:10416000224AC31A3068224E1360B847019AD8F821
:104170000030002A1F49A0EB03031046B4BF4FF0E4
:10418000FF3401241C4A33600C7090471B4C012003
:104190001B491C4A1C4B25700D7015701D7003B017
:1041A000BDE8F083284603B0BDE8F083174A184BFA
:1041B00010789847174B9847002003B0BDE8F0836C
:1041C0003078154B9847204603B0BDE8F08300BF18
:1041D000E1F0400025164000800C4020840840207B
:1041E00045464000780C4020157041007C08402076
:1041F0008008402018004020656F41006D08402075
:104200006E084020880840206F0840204F0C402056
:104210002D2841007910400095104000780840207A
:10422000740840202DE9F041414C23786BB9414D91
:1042300095F90030002B36DB05D03F4A3F4B126822
:104240001B689A4235DABDE8F0813D4C2378002B9B
:10425000F9D1384B93F90030002B62DBF3D0364AAA
:10426000384B12681B689A42EDDB374E374BB06C07
:104270009847374DB36D374A85FB0310DB17C3EB07
:1042800060109047336E344A85FB0310DB17C3EB95
:1042900060109047314B002098470122304B22702C
:1042A000BDE8F0411847244A244B12681B689A4223
:1042B000C9DC254F254BB86C9847DFF89480BB6D5F
:1042C000244A88FB0310DB17C3EB60109047FB6D9B
:1042D000214A88FB0310DB17C3EB60109047214A8B
:1042E000214B92F83C60D16895F9000001FB06F182
:1042F0003F6B1A4A83FB0153CE170B44C6EB631680
:1043000086FB0767F30B43EA474388FB0318DB1779
:10431000C3EB681300FB03F0904701232370BDE853
:10432000F081054A074B12681B689A428BDC9CE7B8
:104330006D08402018004020780C40207C08402068
:104340006E08402080084020B4524020416F410058
:104350001F85EB514D6F4100596F41008D6F41003A
:10436000A5F04000F04F4020898888882DE9F04171
:104370006E4D6F4AAB6E696E5B1A002BACBF0124A9
:104380004FF0FF34904798BB6A4E307817282AD8F0
:10439000034605EB830268490134D2F864E00968FA
:1043A0004CD08E4526DDB8B105EB83031C6EA142CF
:1043B00065DA0138DFF88CE1C3B205EB83026432C1
:1043C00003E052F8044DA14254DA7245D8B21F46B8
:1043D00003F1FF33F5D130704000584B00F0FE0080
:1043E000BDE8F04118471722134632701046D0E757
:1043F000BDE8F081172800F0938005EB83039A6EE7
:10440000914240F38F80431CC0F11600DBB205EBF4
:10441000830453FA80F0643403E054F8042F91428B
:1044200045DD8342DFB29E4603F10103F5D13770CB
:10443000434B987AB842CED33846CDE78E4546DA1C
:104440000028C9D005EB83031C6EA14260DD013852
:10445000DFF8F0E0C3B205EB8302643203E052F808
:10446000044DA1424FDD7245D8B21F4603F1FF3320
:10447000F5D1B0E705EB87053070D5F864E01EEBA9
:10448000040448BF0134B1EB640F0EDA0138C7B23F
:10449000CDE705EB8E053770D5F864E012EB0E0220
:1044A00048BF0132B1EB620F0DDB3778C0E705EB97
:1044B0008E053770D5F864E01EEB020248BF01326A
:1044C000B1EB620FF1DD0137FFB23770B0E71728AB
:1044D00026D005EB83039A6E914225DA431CC0F186
:1044E0001600DBB205EB830453FA80F0643403E07A
:1044F00054F8042F9142CCDA8342DFB29E4603F196
:104500000103F5D193E705EB87053070D5F864E03A
:1045100014EB0E0448BF0134B1EB640FB6DCC4E702
:10452000074685E70746C7E70746B7E7800C402000
:104530000547400070084020780C4020310E4000B4
:10454000B4524020E40C4020054B93F8803003B96E
:10455000704710B5034B9847034BBDE81040184710
:10456000B45240206D43400005404000044A054BD2
:1045700010B514689847044B9847201A10BD00BF27
:10458000780C4020150E4000454640000C4B70B59D
:1045900098470C4B93F8803003B970BD0A4B98478D
:1045A0000A4A0B4D13680B4CC31A0B492860236051
:1045B000106088470220094BBDE87040184700BFD3
:1045C000094A4000B4524020ED3A41008C08402096
:1045D000780C40207C0C402025424000C5814000E2
:1045E000F0B40022134E0127134D334606F59071A7
:1045F00006F1C004104603F8607B43F8042FA34281
:104600002A4441F8040FF8D10C4C4FF400430C48F5
:1046100040F67A0140F23D42C6F88841C6F884016E
:10462000C6F88C31C6F89031C6F89411C6F89821B6
:10463000F0BC7047800C4020CD80FFFF9AD5FFFF73
:1046400001B0FCFF1728F8B528BF1720114C124EF7
:104650000546626EA06E04EB8501D4F89C71821A47
:10466000D1F82431002A4FF47A724FEAE333B4BF11
:104670004FF0FF30012000FB03F0C317A0FB070140
:1046800007FB03110023B04704EB85035B6E18445E
:10469000F8BD00BF800C40205D904100F8B50F4C84
:1046A000237803B120B90E4B002200201A70F8BD08
:1046B00000250C4B0C4801210C4A0D4F0D4E1D706E
:1046C00000780D4B11703D70357098474FF448716C
:1046D0000A480B4B984725700020F8BDEB08402096
:1046E00091084020270E40204E0C4020250E4020EF
:1046F000240E4020930840202D284100849A410038
:1047000065C04000044B187820B1044B1878003085
:1047100018BF0120704700BFEB08402091084020DF
:1047200010B50B4C2378012B02D00023237010BD51
:10473000084A094B10789847084B4FF448710848CD
:104740009847084B00221A700023237010BD00BF49
:10475000910840204E0C40202D28410065C04000AB
:10476000849A4100EB08402070B5144C23784BB17B
:10477000134D01202B78207083B103460122184687
:104780002A7070BD0F4D104EB0476860B047686624
:104790000B4D01202B782070002BEED10A4B98474F
:1047A0002378084AA3F10103C2F888010122B3FA71
:1047B00083F32A705B09184670BD00BF270E4020A6
:1047C000240E4020800C4020ED3A41001E4B9B7A85
:1047D000012B32D92DE9F0411C4E1D4C3578207843
:1047E0005B1B012B05D040B1012300202370BDE8E5
:1047F000F0810128F7D1BDE8F081164FDFF858802D
:1048000007EB8505C0476860C0473578002805F18B
:10481000180371F1000207EB830310DB49104FEA24
:1048200030005A68012D10445860DDD1C047D7F8D8
:1048300098311844C7F89801D6E701207047013035
:1048400041F10001EAE700BFB45240209308402044
:10485000270E4020800C4020ED3A41002DE9F04F1A
:104860005C4C85B05C4FD4F89861626E002E636832
:10487000B97AB4BF751C35469B1B01F11800A2EB39
:10488000650297F878E0C4F8C4304FF47A73626632
:1048900086EAE672002E04EB800CA2EBE672354647
:1048A00004EB8007B8BF751C03FB02F3DCF80400BF
:1048B00004EB810CC4F8982100EB65054748DCF84F
:1048C000C4107D603144D4F88461454FAD1B454E22
:1048D000CCF80410DFF820B1DFF820A1DFF8209138
:1048E00093FBFEF380FB0320DA173B60C2EBA002D0
:1048F000C4F89C31E803C4F89421D847002DB6F8D9
:10490000AE500B4696F83CE00246B6684FEA4505C5
:10491000B8BF35494FF000004FEAE678A8BF3349E9
:1049200095FBFEF54746DFF8DC80CDE90067D04710
:10493000C8473B46324690FBF5F1CF17C8034FEA14
:10494000C73E4EEA5141C04746F2D7334000D4F843
:10495000882180FB0301636E4FEAD03ED31A4EEAF2
:10496000414E0393D8038EEAEE72A2EBEE72C4F8C6
:104970008C21D847039B4FF0000B0246002B0B46BF
:104980005846B4BFDFF860C0DFF860C06146D0476A
:10499000C84790FBF5F5EF17E803F903DDE90023BD
:1049A00041EA5541C04746F2D7324600002310483D
:1049B00040F2DC5186FB02670E4A2370F30B43EA98
:1049C0004743002BB8BF5B42C4F89031904705B015
:1049D000BDE8F08F800C4020B45240204FECC44E14
:1049E000200E4020F04F40200000E0BF0000E03FDC
:1049F000949A410065C04000258741008D844100A4
:104A0000518D41005D90410070B5164C2378D3B1B3
:104A1000154D2B78C3B1012B1ED0022B03D0134BA5
:104A200000221A7070BD124B1B7863B9114B1E78AF
:104A3000BEB9114B98472B78104901330B4A2670A9
:104A40002B700E70167070BD0D4B98470028FAD071
:104A50002B7801332B7070BD0A4B98470028F2D099
:104A6000F6E770BD91084020260E402092084020B5
:104A7000270E4020250E40205D484000EB084020D6
:104A800069474000CD474000034B187810B1034BF5
:104A900093F90000704700BF910840209208402021
:104AA000044A054B12780549493203EB8203CB6176
:104AB000704700BF94084020800C4020E40E402046
:104AC0006F48704B00F108026F49DFF8F8C12DE91B
:104AD000F04F6E4E00F1040EDFF8EC8101244FF030
:104AE00082494FF0020B0327002500F10C0A2DED3F
:104AF000028BC6F81CE0B3EE088ADFF8D0E183B081
:104B0000C8F81C205A46C8F818E0DFF8C4E188F855
:104B100000B0CEF81490CEF80840CEF80440DFF88C
:104B2000B4915B4CCEF81890CEF820403462C8F8AF
:104B30002040DFF8A491574CCEF81C008EF800B04E
:104B4000CEF80C90C4F84CE0DFF890E1C8F808B05B
:104B5000C8F804B088ED058AC4F89C80C4F850E019
:104B60007760DFF87C81DFF87CE14B4F7161614653
:104B7000B3612B463570B5606667C4F82880C4F809
:104B800000E0F760DFF860E1DFF86081434E444FFA
:104B9000C4F878804248CCF800E0DFF85481CCF8C3
:104BA0002860CDF800A0C04727623E492B463E4F03
:104BB0005A460091DFF83CE13C4EC4F8A0707146C3
:104BC000DFF834C130463A4FCEF828C0CEF8007036
:104BD0000327C0473748DFF824914FF0000C90F8C6
:104BE00000E05A4600952B46C4F8C0600EF1490E0D
:104BF000314E3249C6F804B001EB8E0EC6F818C02B
:104C000089F800B0C9F808B0DFF8F4C0DFF8F4B0F4
:104C10002B49C9F80470204FDFF8ECA0C9F814C084
:104C2000C9F818B0DFF8E4C0C9F81CE0DFF8E0B05C
:104C3000DFF8E0E0C9F80C70C1F84C90DFF8D890CC
:104C4000C1F800C0C1F828E0F06150464E62C6F8D5
:104C500010C0C1F83CB0C4F8C8E086ED058A3570D4
:104C6000B560C047009548462B4621460622C4F849
:104C7000E8A0C047484603B0BDEC028BBDE8F08F0A
:104C800054524020000020410000FA43880F402089
:104C9000EA084020D00F4020ECA5410020A64100AA
:104CA000480F4020EB08402028A64100101140206A
:104CB0003CA6410094084020AC0F4020800C4020CE
:104CC000C0104020780E4020640F40200AD7233CBB
:104CD000080F4020CDCCCC3DCC994100D8A5410057
:104CE000CCA5410004A6410014A64100F0A5410056
:104CF000ADB04000280E402038A64100E40E402010
:104D00000000C84A0000C8CAC80E40204CA6410096
:104D1000A14A400040A641002C0F40202DE9F0415F
:104D2000114CDFF86880114F2046114D4146114E5D
:104D3000A84740463946A84738463146A847214645
:104D40003046A84720460C4B984740460B4B9847A7
:104D500038460B4B984730460A4B984720460A4B3B
:104D6000BDE8F041184700BF2C1140208C114020B5
:104D700015C040004C114020557340006957400059
:104D800035784000F9704000E1BB4000AC11402094
:104D9000F0B40E4B4FF07E5203240D4F0D4E012008
:104DA0000D4D00219A615C600C4A0D4C5F611E62E2
:104DB000DD61187082F8B000C2F8C430C2F8A040BB
:104DC0009960C2F8C010F0BC704700BFB01240201C
:104DD00000C07944EA084020EE514020E81140200C
:104DE00000A741000E4B4FF07E5201200021F0B48D
:104DF00004270C4E0C4D0D4C9A6118700C4A0D484E
:104E00005F605E611D62DC619960C2F8C43082F847
:104E1000B010C2F8C010C2F8A000F0BC704700BFCC
:104E2000B0124020003C1C46EA084020AC52402012
:104E3000E811402004A74100F0B5114D0022114FA8
:104E400083B0114C4FF0030CC5F8A0704FF0040E66
:104E50000E4F1346009221460D4E27600D4F3046EF
:104E6000C5F8C42085F8B0200222C4F824C0C4F8D4
:104E70004CE0A762084CA047C5F8C06003B0F0BD85
:104E8000E811402014A741006813402020A74100EA
:104E9000701440202CA74100ADB040002DE9F04F28
:104EA000604D4FF00008604F0026691CDFF8A8E154
:104EB0005E4C4FF00109281D0222DFF8A0C13346E5
:104EC000DFF89CB1DFF89CA12DED028B83B0B7EE2B
:104ED000008A00916146C7F814E0DFF88CE1C7F85A
:104EE0001880CEF81440DFF88481514CCEF81C5065
:104EF0008EF80060CEF80860CEF804908EED068A39
:104F0000CEF82080C4F824E0DFF864E1F861584668
:104F10007A6003223E70BE60C7F82080E764C4F860
:104F200028E0444FDFF84CE12765CCF800E0424F21
:104F3000DFF844E1CCF82870CCF850E0C4F800A0C9
:104F40003E4FB84705F1BA02DFF830C1083D009284
:104F50003346DFF82CE10322C4F870B0C4F878C0FF
:104F60007146DFF820B1DFF820C1CEF800B0CEF8EE
:104F700014C0DFF818B1DFF818C1DFF818A1CEF8B7
:104F800050B0CEF828C05046DFF80CC1DFF80CB1A5
:104F9000CEF83CC0CEF864B0B84795F8C230C4F83B
:104FA00098A04B4524D0022B39D0254B0E35032039
:104FB0002449254A84F8B090C4F8C060DD6183F8C4
:104FC00000909E6083ED068AC3F82080C4F8C43048
:104FD00058605961C4F8A0200023052214490093A9
:104FE0001A48B847194803B0BDEC028BBDE8F08FF2
:104FF000134ACC35042016491370164B84F8B06060
:10500000C4F8C060D561966082ED068AC2F820803F
:10501000C4F8C42050605161C4F8A030DCE7D84720
:10502000DAE700BFE8514020B813402000001041EB
:10503000E81140207CA64100A0A64100ADB0400090
:10504000B012402000C0794400A74100CC1140209C
:10505000003C1C4604A741000000B841DC1340207E
:10506000D412402060A641008C144020EA08402061
:105070006CA6410090A64100B0A64100C8A6410020
:10508000F01240203CA64100914D4000DCA64100BA
:10509000ECA6410054144020E54D4000394E40003C
:1050A0002DE9F04F664F83B0664E4FF07E5CA7F15E
:1050B0000A01654C00254FF002090091634A2B4616
:1050C000C6F818C03461DFF8C0C1614CDFF8BCE13C
:1050D000F76172617146C6F820C004223570B56070
:1050E000C6F804906662DFF8A8C15A4EC4F800C042
:1050F000CEF80060DFF89CC1574EDFF89CB1C4F8D1
:1051000028C0CEF878605846DFF890C1534EDFF8DB
:105110009081CEF828C0CEF85060C047504EDFF8DE
:1051200084C12B4600954A46C6F814C04FF0000CC7
:10513000DFF874E1C6F818C0DFF870C17146357049
:10514000C6F81CC0DFF868C1B560C6F80490CEF898
:105150002460C6F810C0434EDFF858A1CEF800C056
:10516000CEF83060DFF850C13F48404EC4F848B038
:1051700020655046CEF828C0CEF83C60C0473C4E73
:10518000A7F10901DFF834C1DFF834E12B460091C3
:105190003146DFF830B1C6F800C0C6F828E05846FE
:1051A000DFF824C1DFF824E1324AC4F870A0A26716
:1051B0000422C6F850C0C6F878E0C047DFF810E116
:1051C000A7F10801DFF80CC12B4E013700912B46E7
:1051D000CEF828C07146DFF800C13046274ADFF814
:1051E000FCA0C4F8A0200322CEF800A0CEF850C046
:1051F000C4F898B0C047DFF8E8A000974A46DFF847
:10520000E4E02B46DFF8E0C05046DFF8E09071465E
:105210001B4FC4F8C0601B4ECEF800C0CEF82870FB
:10522000C4F8C890C047009530462B462146062258
:10523000C4F8E8A0C047304603B0BDE8F08F00BF17
:10524000EA5140209C17402048A741000000B84187
:10525000B01440207CA7410090A741009CA74100CA
:105260006C164020690C4000A4A74100090C4000C6
:1052700090164020C4A74100CC18402014A841003B
:1052800074A8410030174020EA084020C017402091
:1052900038A741006CA74100B018402088A7410002
:1052A000ADB040000000C0414C1740202D08402008
:1052B0004CA6410018164020B4A74100D0A74100D9
:1052C000D8A7410050164020ECA7410000A841009B
:1052D000A015402038A8410048A8410028A8410056
:1052E00034164020601840206CA8410058A84100A6
:1052F0002DE9F04FD54EF7EE007AD54A0224D54B72
:10530000351D06F10800D44FDFF8C0834FF00309C4
:10531000D24906F10C0A9FEDD27A06F1100C06F183
:105320001C0EF3EE046A06F1300B2DED028BD561F5
:1053300083B0CC4DD8610120DFEDCB8A81ED057AB9
:1053400082ED057AC1ED067AC2ED067ACE610C7067
:10535000147088609060C1F80490C2F804900F62E5
:105360001762C1F80C80C2F80C806962EA64BF4918
:10537000BF4A83ED057A1C709860C3F804901F62E1
:10538000C3F80C806B672960AA62C3ED068AB9492D
:10539000B94BBA4A296506F12C01AA6783ED057A53
:1053A0001C709860C3F80490C3ED068A1F62C3F8AE
:1053B0000C80C3F81CA006F1380AC5F89C30B04B2D
:1053C000B04A83ED057AC3F804901C70986006F12A
:1053D0003C00C3ED068A1F62C3F80C80C5F8C430D8
:1053E000C3F81CC006F1340CDFF8E492A64BC5F8F4
:1053F000A020C5F8C890A54ADFF8D892C5F8F030CB
:10540000A34BC2F81CE0C2F81490DFF8CCE2C3F85A
:105410001490DFF8C8921470946054601762C5F855
:10542000EC201C709C605C60C2F818E0C2F80C9024
:10543000984AC3F818E0C5F8182106F120021F6247
:10544000C3F80C90DA6106F12402C5F81431924BCE
:105450009FED928AC5F84031914BC5F86831914B68
:10546000C3ED056A1C709C605C60C3F818E01F62A5
:10547000DA610432C3F80C90C5F83C318A4BC3EDB5
:10548000056A1C709C605C60C3F818E01F62C3F87A
:105490000C90C5F86431DA612246844BDFF840E2B3
:1054A000C3ED067A1C709C605C601F62C3F80C80C0
:1054B000D9617F49C5F890E1C5F8B8117D49DFF899
:1054C00024E2C5F858127C49C5F8E0E1C1F81CC0D7
:1054D000DFF814E2DFF814C2CEED067AC1ED067AE9
:1054E000CCED067A83ED058AC5F88C310023CEF821
:1054F0001CB08EF80040CEF80840CEF804408EED87
:10550000058ACEF82070CEF80C80C5F8B4E10C7096
:10551000DFF8DCE18C604C6081ED058A0F62C1F838
:105520000C80C5F8DC1171468CF80040CCF80840BE
:10553000CCF804408CED058ACCF82070CCF80C80B7
:10554000C5F804C2CCF81CA0DFF8A8C1DFF8A8B1E8
:10555000CEF800C0DFF8A4C100905846CEF828C0AD
:10556000DFF89CA1D047C5F878B2DFF898B106F112
:10557000440C524906F14800C5F880B2F6EE007AB4
:10558000DFF884B14FF0000E4D4A06F14003C5F834
:10559000A8B2DFF878B1C1F81CC0C5F8D0B2DFF806
:1055A00070B1DFF870C1CBF80C808BF80040CBF8FD
:1055B0000840CBF804408BED058ACBED068ACBF88A
:1055C0002070C5F8F4B2CBF81C00DFF84CB13D48B0
:1055D000C1ED067AC2ED067AC1F80C9006F1140905
:1055E00081ED058A1836C5F8CC120F620C708C60FC
:1055F0004C60294682ED058AC5F8A4221762147012
:1056000094605460D3617346C2F80CC01322C5F88D
:1056100008028BF80040CDF800E0CBF80840CBF84A
:105620000440294CDFF8F480E6614FF00106CBF826
:105630000CC040468BED058ACBED068AC5F82CB22E
:10564000CBF82070CBF81C906AE000BF08524020D5
:10565000F8194020401A4020EA084020841E4020CB
:105660000000C842FC1A4020000000007CA8410055
:105670008CA841009CA84100D81A4020A8A841004D
:105680000C194020B8A84100ECA84100D4194020D2
:10569000181E4020D8A84100E8A84100E1FAC742FE
:1056A000FCA84100F41D40201C1A4020B41A4020E0
:1056B00014A941002CA9410078194020CC1E40209B
:1056C0005419402074A94100601E402088A8410060
:1056D000C4A8410085EBA741CDCCCC3DD4A8410066
:1056E00008A9410020A94100A81E402030194020EF
:1056F000641A40203CA941009C19402044A9410063
:10570000ADB0400050A941005CA9410068A941002A
:105710003C1E4020E8994100E8184020B81940207C
:10572000DFF838C026700426DFF834B0DFF8349094
:10573000C4ED068AC5F8544227626660C4F814B006
:10574000C5F830C2C4F80C90C4F808E0D047404611
:1057500003B0BDEC028BBDE8F08F00BF88A941000B
:1057600000409C4598A94100F0B52F4A83B02F4DC9
:105770000646009229462E4B2E4A2F4CA0472F4C0E
:105780002F4A304B226098472F4A304BA26220624A
:1057900098472F4A2F4B2265A06498472E4A2F4BDB
:1057A000C4F81821206798472D4A2E4BA267C4F8E9
:1057B000380198472C4A2D4BC4F8A020C4F8980013
:1057C00098472B4A2B4BC4F8C820C4F8C000984710
:1057D000294A2A4BC4F8F020C4F8E8009847284A20
:1057E000284BC4F84021C4F81001984733460021E3
:1057F000254A264EC4F860012846DFF8A0E0244D73
:10580000244F00912146C4F868210B22C4F890610E
:10581000214EC4F884E1C4F8AC71C4F86C51C4F8EA
:105820009451B04703B0F0BD84534020A8204020DD
:105830009CA9410084A44100D5B04000F01E402046
:10584000B4A94100A1584000BCA94100FD5E400040
:10585000D0A9410051644000E0A94100C95C40006A
:10586000F0A94100E159400000AA4100E968400068
:1058700010AA41005D6340001CAA4100556B400026
:1058800028AA4100A16A40002CAA410050AA410068
:1058900040AA4100059E4000ADB04000ED98400098
:1058A0002DE9F047DFF8188182B0364D4FF0804681
:1058B00008F1050203244FF082414FF07E50009220
:1058C0002246AE610027304E4FF00209696108F1AF
:1058D000040374602D492E4CE960B06134622C627F
:1058E0002C492D4C2D48EB613B46C6F81C8071615C
:1058F00086F80090F060C6F80890C5F804902F7004
:10590000AF606662E564264E264DDFF8B8E026609B
:10591000A5627146244E254DDFF8ACA02665CEF871
:1059200000505046224E234DCEF82860CEF85050FD
:10593000214DA84708F10E01DFF890C04A46DFF874
:1059400090E03B46DFF88C80009171461B4EC4F816
:1059500078C0DFF884C03046CEF80080DFF87C8065
:10596000CEF828C0C4F870A0A847009740463B4630
:1059700021460422C4F89860A847404602B0BDE81A
:10598000F08700BF90214020A42240208CAA410033
:10599000EC4F40200000C84204224020E89941001A
:1059A00064AA410078AA410090AA4100A0AA41003F
:1059B000A4AA4100B8AA4100ADB04000C4204020D4
:1059C000A8514020FC20402074214020CCAA410056
:1059D000B421402038A6410000A74100E02040202B
:1059E0002DE9F04FDFF8F8C183B06F4D4FF0010B98
:1059F000DFF8F0E100236D4C032200957146DFF8DB
:105A0000E8811E46CEF828C04FF0050ADFF8DCC159
:105A10004046674FDFF8D891CEF80070CEF850902E
:105A2000C4F800C0634FB84705EB0B03DFF8C4E1CF
:105A3000AA1C00933346C4F82080DFF8BC81CEF85E
:105A400004A0C4F85080DFF8B481DFF8B4A1CEF828
:105A50001480DFF8B081DFF8B0C1CEF81880DFF82D
:105A6000AC816146DFF8A891CEF81C200222C4F870
:105A70004CE08EF800B0CEF80860CEF80CA0CEF85E
:105A800020804D48DFF88CE1DFF88CA1A062484609
:105A9000CCF800A0CCF828E0B847C4F8709047498B
:105AA00005F1040CDFF87491032200913346DFF80E
:105AB00070E1C4F8C890DFF86C9171468EF838B088
:105AC000CEF82890DFF860B1DFF86091CEF800B032
:105AD0004FF0020BCEF85090DFF854E1DFF854910C
